:04000000020029329F
:03000B000200945C
:0100130032BA
:01001B0032B2
:030023000208656B
:0300910002002644
:030026000200983D
:20009400320208C67F19751D01751E01758201C0071207C512093C12081B1201FC751D00C1
:2000B400751E007582001207FE755202755312755400758201120D46D007C2CC900023E4C6
:2000D400F0A3F0C00712035FAE827D0090000DEEF0EDA3F0AD107E00900001EDF0EEA3F07C
:2000F400AD127E00900007EDF0EEA3F0AD117E00900003EDF0EEA3F0AD137E00900009EDC9
:20011400F0EEA3F0AD147E0090000BEDF0EEA3F01204BBAE827D0090000DEEF0EDA3F01297
:20013400050C121057AD82AE8390000FEDF0EEA3F0120211AD82AE83D007900011EDF0EEFC
:20015400A3F02093099000137401F0E4A3F02094099000157401F0E4A3F0900021E0FDA34E
:20017400E0FE4D6004D2B48002C2B490001FE0FDA3E0FE4D6004D2B38002C2B3900019E09B
:20019400FDA3E090001BE0FCA3E08C1D90001DE0FCA3E08C1E8D82C0071207FED007EF604F
:2001B400031F80287F19900023E0FDA3E0FE4D6019D2CC900023E0FDA3E0FE1DBDFF011E4B
:2001D400900023EDF0EEA3F08002C2CC90000175F000C00712094FAD82AE83D007900017E5
:0801F400EDF0EEA3F00200D7CC
:2001FC001206951206A575824612071B75821012071B0206BB1206A575824712071B1207C2
:20021C008AAE827F00C007C0061206DB12078AAD82D006D0077C00ED4207EC4206C007C01D
:20023C00061206FB1206BBD006D0078F828E8312104BAC82AD83AEF0FF749AC0E014C0E01D
:20025C00C0E0743FC0E08C828D838EF0EF1210CBAC82AD83AEF0FFE58124FCF5818C828D85
:07027C00838EF0EF02105722
:20028300AF82EF600B7E0DEE14FDFE70FA1F80F222AC82AD83AEF0FFEC4D4E4F60257582DE
:2002A300C8C007C006C005C004120283D004D005D006D0071CBCFF091DBDFF051EBEFF01D6
:0402C3001F80D522A1
:0F008200751000751100751200751300751400CC
:2002C700AD82AE83AFF0E4120EF77C007A007B0020B5168A008B010ABA00010BC3741098FC
:2002E70074279950EB758203227B007A0030B528758201C007C006C005C004C00212028303
:20030700D002D004D005D006D0078A010A8A03E9249B50D975820422EB24FA50198D828E8F
:20032700838FF012119925E0FB0B8D828E838FF0EB120EF780158D828E838FF01211992537
:20034700E0FB8D828E838FF0120EF70CBC080050030202D375820022C2B590001EE4F5F004
:20036700120294D2B575820A1202837E007F0020B5168E048F050EBE00010FC374109C746E
:20038700279D50EB758201227E007F0030B5168E048F050EBE00010FC374109C74279D50D8
:2003A700EB7582022290001275F0401202C7E582FF600674104FF5822290001375F040127C
:2003C70002C7E582FF600674204FF5822290001075F0401202C7E582FF600674304FF582AF
:2003E7002290001175F0401202C7E582FF600674404FF5822290001475F0401202C7E582C0
:0D040700FF600674504FF5822275820022BE
:20041400D295758205120283C295758278120283D29575820F120283A295E433FF75821415
:20043400C007120283D0078F82227F007E08C295758201C007C006120283D2957582021256
:200454000283D006D007EFA29513FF75820BC007C006120283D006D007EE14FDFE70CF8F80
:200474008222AF827E08EF30E01AC295758202C007C006120283D29575820A120283D006AB
:20049400D0078018C29575820AC007C006120283D295758202120283D006D007EFC313FFF5
:2004B400EE14FDFE70C022120414AF827582CCC007120476758244120476120414AE82D077
:2004D40007EEC454F042077582CCC0071204767582BE120476D0077E00EE2421F9C007C063
:2004F40006C00112043EE582D001D006D007F70EBE090040E48F8222E4F52AF52BF52CF58C
:200514002DF52EF52F852EF005F0E5218002C313D5F0FB5401FFE52E24FCF582E52F34FF58
:20053400F583C00712103E85821585831685F017F518900000E4F5F07440120F12858230BE
:2005540085833185F032F533D0078F8212118EAA82AD83AEF0FFC030C031C032C0338A821B
:200574008D838EF0EF120DF3AC82AD83AEF0FFE58124FCF581C004C005C006C007852A829A
:20059400852B83852CF0E52D120FE585822A85832B85F02CF52DE58124FCF581052EE4B56C
:2005B4002E02052FC3E52E9408E52F648094805003020519E4F52EF52F852EF005F0E52208
:2005D4008002C313D5F0FB5401FD852E82852F83A3A3A3A3C00512103E85821585831685C1
:2005F400F017F518900000E4F5F07440120F1285823085833185F032F533D0058D8212114D
:200614008EAC82AD83AEF0FFC030C031C032C0338C828D838EF0EF120DF3AC82AD83AEF0DE
:20063400FFE58124FCF581C004C005C006C007852A82852B83852CF0E52D120FE585822A47
:2006540085832B85F02CF52DE58124FCF581052EE4B52E02052FC3E52E9403E52F6480946B
:200674008050030205CDE522A2E3E433FF6006E52DB2E7F52D852A82852B83852CF0E52DD3
:010694002243
:20069500D291758201120283D290758201020283C291758201120283C290758201020283BF
:2006B5001206950206A5C290758201120283C291758201120283D290758201120283D291B4
:2006D500758201020283C291758201120283D290758201120283C290758201120283D2916F
:2006F500758201020283D291758201120283D290758201120283C290758201120283D2913F
:20071500758201020283AF827E00EF20E712C291758201C007C006120283D006D0078010E2
:20073500D291758201C007C006120283D006D007D290758201C007C006120283C2907582B1
:2007550001120283D006D007EF2FFF0EBE080040B9D291758201120283D2907582011202F5
:2007750083A291E433FFC290758201C007120283D0078F82227F007E00D290758201C007C8
:20079500C006120283D006D007309103430701BE07005003EF2FFFC290758201C007C0061F
:1007B500120283D006D0070EBE080040CC8F8222DD
:2007C500AF8243A22053A2EF75D80075E90075F90075D90275F2008FEA8FFA75DA4275F32F
:2007E50000851DEB851DFB75DB4275F400851EEC851EFC75DC42D2DE22AF828FEA8FFA8584
:0C0805001EEB851EFB851DEC851DFC22F2
:20081100A203B39204E433F58222538EEF743F55A24440F5A2743F55984440F598439810F8
:20083100438E0175D6FF75D7D0538EF7438E04D2BCC298C299900028E4F0900027F09000BC
:2008510026F0900025F0D202D203C201C200D2AC438E1022C0E0C082C083C0D075D008C259
:20087100AC1098028018900026E0FF04F0EF2429F582E43401F583E599F0D200C2031099FE
:20089100028027900027E0FF900025E0FEEFB50E06D202D2018013900027EF04F0EF2429AD
:2008B100F582E43400F583E0F599D2ACD0D0D083D082D0E032AF82900025E0FE04F0EE2443
:2008D10029F582E43400F583EFF0C2AC1002028002D299D2AC22AD82AE83AFF08D828E83CA
:2008F1008FF0121199FC60188C82C007C006C0051208C6D005D006D0070DBD00DF0E80DC63
:2009110022900028E0FF04F0EF2429F582E43401F583E0FFC2AC900028E0FE900026E0FD5F
:0B093100EEB50502D203D2AC8F82228B
:13093C00438E805389FC758CA9758A9AD2A9D2AFD28C22C0
:20094F0085823485833585F0367537007B00C003120811E582D0036040E5376009C003121C
:20096F000912D0038026BB8003753701EB2429FAE43402FCC004C003C002120912AF82D02A
:20098F0002D003D0048A828C83EFF00B78628682C003120283D00380B58B07E537601678BA
:2009AF00608605088606786074012DF6E43E08F68D828E8322EB24F94003020CED900229D6
:2009CF00E0FE785C7600EE7004785C7601785DE6B506028008785CE67003020CFDEF24FEEA
:2009EF00FE2429F582E43402F583E0FC7D00EF142429F582E43402F583E0FAC0077F00EAD8
:200A0F004205EF42048E82C005C004120D75AE82AF83D004D005EEB50506EFB50402800536
:200A2F00D007020CE3D00790022AE0FE785EA60690022BE0FD7C008D498C4890022CE0FA94
:200A4F008A468C47E5464548F538E5474549F53990022DE0FC7D008C4D8D4C90022EE0FAB3
:200A6F008A4A8D4BE54A454CF53AE54B454DF53BE53A2538F53CE53B3539F53D785CE66053
:200A8F0003020B7CBE03028003020B7C785AC3E53896E53908964003020B73785AC3E69515
:200AAF003C08E6953D5003020B6AE53AFA25E0F5422405F543900229785DE6F090022AEE9B
:200ACF00F090022BE542F0753F0385383E853E4EAA4E7C00C3EA953CEC953D5045E54E7593
:200AEF00F002A42534FAE53535F0FCAD368A828C838DF0121199FAA3121199FCE53F2429C6
:200B0F00F582E43402F5838C05EDF0053FE53F2429F582E43402F5837C00EAF0053F054EA4
:200B2F0080AEE54324FEFDF582C005120D75858240858341D005ED2429F582E43402F583B9
:200B4F00E541F0E543142429F582E43402F583E540F0854382120DC8020CFD758203120D74
:200B6F0005020CFD758202120D05020CFDBE0674785AC3E53896E5390896505FE54645488B
:200B8F00F538E5474549F539E54A454CF544E54B454DF545E5382538FAE53933FDEA253437
:200BAF00FAED3535FDAC368A828D838CF0E544120EF7A3E545120EF7758206120D758582A2
:200BCF0040858341AD4190022FEDF0AC40900230ECF0758208120DC8020CFD758202120D5E
:200BEF0005020CFDBE10028003020CDB90022FE0FE7D00EF24F7FFED34FFFD7C00EEB50732
:200C0F0006ECB505028003020CD1785AC3E53896E53908964003020CC9785AC3E6953C0843
:200C2F00E6953D5003020CC1AA38753F078A057E00C3ED953CEE953D504FEA75F002A42527
:200C4F0034F54FE53535F0F550853651E53F2429F582E43402F583E0FF7E00E53F04242931
:200C6F00F582E43402F583E0FD7C004206EC4207854F828550838551F0EE120EF7A3EF1269
:200C8F000EF7053F053F0A80A4758206120D75858240858341AF4190022FEFF0AE407F006C
:200CAF00900230EEF0785CE67044758208120DC8803C758203120D058034758202120D0586
:200CCF00802C786006B6000208068022758201120D05801A786006B6000208068010EB60DE
:200CEF000DBB08005008786006B6000208067860868208868322AF82786006B60002080631
:200D0F00785CE67031900229785DE6F0785E74804690022AF090022BEFF0758203120D751D
:200D2F00AE82AF838F0590022CEDF090022DEEF0758205020DC822AF82785DA60712081B99
:200D4F00E55224FE5006AF52785FA6077862760F78637623AE53AF54785AA60608A60778CE
:200D6F0060E4F608F622AF827DFF7EFF7C00C3EC9F5034EC2429F582E43402F583E07A00F6
:200D8F006205EA62067B0874015DF97A00EEC313CD13CDFEE94A60066305016306A0EB144A
:200DAF00FAFB70E30C80C78E047F008D037A00EC4AFDEF4B8D82F58322AF827E00C3EE9F59
:200DCF00501BEE2429F582E43402F583E0F582C007C0061208C6D006D0070E80E078638615
:040DEF0082020283F7
:200DF300120E96BC0003021083EF60FA30D502B2D1E583B4FF03021099E582B4FF0302100B
:200E130099258340072482400B0210832483145003021099F582EA8DF0A4A8F0EA8EF0A4D2
:200E330028F8E435F0F9EB8DF0A428E935F0F9E433CA8FF0A429F9EA35F0FAEBF88EF0A40E
:200E530029F9EA35F0FAE433FBEC8DF0A429F9EA35F0FAE43BFBE88FF0A42AFAEB35F0FBB6
:200E7300E433CCFD8EF0A42AFAEB35F0FBE43CFCED8FF0A42BFBEC35F0FC20E703120EC4E1
:030E9300021062E8
:200E9600AA82AB83A2F73392D1F5826002D2F7ACF0E58124F9F8E6FD08E6FE0886F008E6BF
:0E0EB600A2F73392D5F5836002D2F7AFF02297
:06005800E478FFF6D8FD7C
:200EC4007804EC7011E58224F8500AF582E4C9CACBFCD8EF22EC7820058220E713D582012D
:130EE40022C3E933F9EA33FAEB33FBEC33FCD8EA1582223B
:200036007900E94400601B7A0090161378A975A002E493F2A308B8000205A0D9F4DAF2759D
:02005600A0FF09
:1B0EF70020F71130F6138883A88220F509F6A8837583002280FEF280F5F022FA
:200F1200AC82AD83AEF0FF8515F0E51642F0E51742F0E518547F45F0700990000075F080EC
:200F3200743F22C007C006C005C004E4C0E0C0E07480C0E0743FC0E08515828516838517D3
:200F5200F0E518121342AB82E58124FCF581D004D005D006D007EB60088C828D838EF0EFCE
:200F720022C007C006C005C004E4C0E0C0E0C0E0C0E08C828D838EF0EF121357E58124FC36
:200F9200F581D004D005D006D007E58224FF92054007900000E4F5F0228C828D838EF0EF05
:200FB2001211F5AC82AD83AEF0FFC015C016C017C0188C828D838EF0EF120DF3AC82AD83B7
:130FD200AEF0FFE58124FCF5818C828D838EF0EF0213874C
:200FE500120E967900E583B58202800D50031210B1E583C395821212FFE5D0C465D020E155
:2010050017EA2DFAEB3EFBEC3FFC500974011212FFEC4480FC021062C3EA9DFAEB9EFBEC93
:191025009FFC500FC3E499F9E49AFAE49BFBE49CFCB2D1120EC402106236
:20005E007800E84400600A790175A000E4F309D8FC78A8E84402600C7903900001E4F0A3F3
:04007E00D8FCD9FAD7
:0D103E00AC83AB827A007900748E0211BE83
:0C104B00E4AC83AB82FAF9748E0211EB66
:0B1057007F8E121525F58385F08222A4
:20106200B98003EA13B34010EA2401FAE43BFBE43CFC50047C800582BC000EBB000BBA00D2
:2010820008E4F5F0F583F58222A2D1E582138CF092F78B838A8222E4F583F58275F080F492
:0F10A200A2D11322E4F583F58275F0C0747F228A
:1A10B100E582C583F582A2D133A2D592D11392D5ECCFFCEBCEFBEACDFA22C7
:2010CB00120E9630D502B2D1BF0009BC00030210A6021099BC0003021083E583B4FF0BE57C
:2010EB0082B4FF030210A6021083E582B4FF03021099C395835007247F400B02108324803F
:20110B00145003021099F582C3ED9AEE9BEF9C40111582C3EA33F9EB33FAEC33FBE433FCD7
:20112B008005E4CCCBCAF9C08275F019C3E99DEA9EEB9FEC9400D5F002802D400EE99DF905
:20114B00EA9EFAEB9FFBEC9400FCC3B3E833F8E58233F582E58333F583C3E933F9EA33FA65
:20116B00EB33FBEC33FC80C4B3E4F938FAE43582FBE43583FCD082500405827C80120EC4EF
:03118B0002107AD5
:0D002900758163121353E582600302002607
:0B118E00E4AC82FBFAF974860211EB5E
:1C11990020F71430F6148883A88220F507E6A88375830022E280F7E49322E02265
:2011B500FCABF0AA83A982749EF582C2D1EC30E716D2D1E9F42401F9EAF43400FAEBF43439
:0D11D50000FBECF43400FC120EC4021062AA
:1311E200FCABF0AA83A982749EC2D1F582120EC402106297
:2011F50012151130D1061210A60212BDBC0008D2D11210990212BDC082740379001212FFBA
:20121500E4F519F51AF51BF51C90159BF88C078B068A0589F0E81212BEE925F0EA3DEB3E1B
:20123500EC3F54E07028E925F0F9EA3DFAEB3EFBEC3FFCE4932519F519740193351AF51A16
:20125500740293351BF51B740393351CF51CA3A3A3A308B81EB7AC1CAB1BAA1AA919758278
:2012750081D2D1120EC4D0E0B47E0512107A803840062482C2D58005F4247FD2D5F81210B6
:20129500B1741888F0A4F9AAF074B188F0A4FBACF0747288F0A42AFAE5F03BFBE43CFC75B3
:0912B5008286120EC4120FE82219
:2012BE0024F850228DF0AD06AE077F0024F850168DF0AD067E0024F8500C8DF07D0024F860
:2012DE00500475F0002224086016C000F8C3EF13FFEE13FEED13FDE5F013F5F0D8EFD00097
:0112FE0022CD
:20159B00FF422E16F691F90CF2FD2307EEE0C4030CA3F001D814FC00A3027F0055C03F0071
:2015BB000BF01F0001FC0F0000FF0700C0FF0300F0FF0100FCFF0000FF7F00000040000079
:2015DB000020000000100000000800000004000000020000000100008000000040000000F1
:1815FB0020000000100000000800000004000000020000000100000099
:2012FF006040F82582500274FFF582E824F8501ECCCBCAF9E4CC24F85014CBCAF9E4CB24F7
:20131F00F8500BCAF9E4CA24F8500379002224086010F8C3EC13FCEB13FBEA13FAE913F9A9
:03133F00D8F122C0
:11134200FFA881181812156812154AE96401F582225B
:04135300758200227D
:20135700FFA8811818121568D2D133E6400730E70B7582012220E70675820022C2D1121570
:101377004AE97003F5822230D101B3E433F58222C2
:20138700A2E79206C2E7F8A2F7332499400B90000075F080743F0214C1755900E58224E870
:2013A700E583348DE5F034CEE834C0E8505885825585835685F057F558783BC00078AAC092
:2013C7000078B8C000783FC000120DF31581158115811581121593E582F5592480500612BA
:2013E70010990214C1780079807A317BBF1214C285825585835685F057F558788379807AE7
:201407005E7B391214C2A2F733D2F7A982AA83ABF07C00B47902800F400724871214FA8077
:2014270006F4247A1212FFE4F555F556F55775582090159BF8E493F5F0A3E493FDA3E49373
:20144700FEA3E493FFA3C3E995F0EA9DEB9EEC9F4030C3E995F0F9EA9DFAEB9EFBEC9FFCD9
:201467008555F0AD56AE57AF58E81212BEE55525F0F555E5563DF556E5573EF557E5583F24
:20148700F55808B81BAFAC58AB57AA56A955120EC4747F2559F58212106230061BC082C0C7
:2014A70083C0F0C0E090000075F080743F1210CB1581158115811581C2E722C000C001C0D9
:2014C70002C00385598212118E120DF31581158115811581C082C083C0F0C0E0855582850F
:2014E70056838557F0E558120FE51581158115811581226014C000F8C3E933F9EA33FAEB7D
:0A15070033FBEC33FCD8F1D00022D6
:12151100AA82AB83A2F73392D1F5826002D2F7ACF022DF
:201523007F9E12151130D103021083C3EF9582500974FFF5F0F583F5822279001212FF890A
:07154300828A838BF0EC2289
:20154A007901AA82E68F82B5821318E6B5F00E18E6B5830918E68A82B58202790022B48098
:20156A000FE5F0700AE5837006E58270027F00EFB6801518B6001018B6000B18B600060800
:09158A0008087600220808082276
:081593007F86121525F5822266
:00000001FF
